:100000000C9434000C9451000C9451000C94510049
:100010000C9451000C9451000C94D7020C94510094
:100020000C9451000C9451000C9451000C9451000C
:100030000C9451000C9451000C9451000C945100FC
:100040000C9451000C9451000C9451000C945100EC
:100050000C9451000C9451000C9451000C945100DC
:100060000C9451000C94510011241FBECFEFD8E026
:10007000DEBFCDBF11E0A0E0B1E0E0E1FDE102C0F4
:1000800005900D92A232B107D9F721E0A2E2B1E0CA
:1000900001C01D92A83AB207E1F70E9453000C94E8
:1000A000860E0C94000084B18FEF84B997B187B9A4
:1000B000E12CF12C00E020E030E044E650E066E086
:1000C00071E082E790E00E945A0620E030E044E6CA
:1000D00050E06DE071E08EE890E00E945A060E94C8
:1000E0007A07FFCF80E090E041E050E068B19A01EC
:1000F000082E02C0220F331F0A94E2F7262B28B9DC
:100100002FE33DE063E0215030406040E1F700C064
:10011000000001968138910549F7089580E090E04C
:1001200041E050E065B19A01082E02C0220F331F52
:100130000A94E2F7262B25B92FE33DE063E0215036
:1001400030406040E1F700C0000001968830910522
:1001500049F70895CF93DF93EC010E94A807CE01E1
:100160000E94230DD82FC92F0E9477088D2F9C2F16
:10017000DF91CF910895CF93DF93EC01009739F091
:100180000E94A807CE010E94BE0D0E947708DF9151
:10019000CF910895FC010396928381832FEF3FEF67
:1001A0003483238396838583908787831082089581
:1001B000FC01118610860895CF93DF939C01FB010B
:1001C000DC011196CD91DC911297D383C2838C818F
:1001D0009D81958384838C819D81DC0113967C9322
:1001E0006E9312977D836C8331872087F90180811C
:1001F0008F5F8083DF91CF910895CF93DF93EB01E1
:10020000488159814F3F2FEF520721F4FC01A7810C
:10021000B0850DC0DC01139601C0DF011296ED918F
:10022000FC9113972081318142175307B0F7129642
:10023000ED91FC911397FB83EA83D583C483BD833F
:10024000AC831396DC93CE93129799878887FC0131
:1002500020812F5F2083DF91CF910895CF93DF938B
:10026000FC01A085B185C281D381848195819D8364
:100270008C83C481D581828193819B838A831196EB
:10028000CD91DC911297CE17DF0731F48C819D81DF
:1002900012969C938E931197118610868C918150A3
:1002A0008C93DF91CF91089531E1FC013083319738
:1002B00022E22083FC013297A3E3A083FC01339761
:1002C0006083FC0134977083FC0135971082FC0138
:1002D000369760E86083FC0137971082FC013897FD
:1002E00062E06083FC01399763E06083FC013A9728
:1002F00064E06083FC013B9765E06083FC013C9710
:1003000066E06083FC013D9767E06083FC013E97F7
:1003100068E06083FC013F9769E06083FC017097AF
:1003200060E16083FC0171973083FC01729732E1D8
:100330003083FC01739733E13083FC01749734E11F
:100340003083FC01759735E13083FC01769736E107
:100350003083FC01779737E13083FC01789738E1EF
:100360003083FC01799739E13083FC017A9730E2E0
:100370003083FC017B9731E23083FC017C97208342
:10038000FC017D9723E22083FC017E974083FC01E2
:100390007F975083FC01B09726E22083FC01B19740
:1003A00027E22083FC01B29728E22083FC01B39767
:1003B00029E22083FC01B49720E32083FC01B59758
:1003C00021E320839C0126523109822F932F089527
:1003D000A89520EC88E190E00FB6F894A89580935A
:1003E00060000FBE20936000A0913201B0913301F4
:1003F000CD91CDBFDD91DEBFFF91EF91DF91CF9128
:10040000BF91AF919F918F917F916F915F914F912C
:100410003F912F911F910F91FF90EF90DF90CF9020
:10042000BF90AF909F908F907F906F905F904F9014
:100430003F902F901F900F900FBE0F90089581E076
:1004400008950F920FB6F8940F921F9211242F92D5
:100450003F924F925F926F927F928F929F92AF9254
:10046000BF92CF92DF92EF92FF920F931F932F9341
:100470003F934F935F936F937F938F939F93AF932C
:10048000BF93CF93DF93EF93FF93A0913201B0918D
:1004900033010DB60D920EB60D920E942E09A09159
:1004A0003201B0913301CD91CDBFDD91DEBFFF911F
:1004B000EF91DF91CF91BF91AF919F918F917F91FC
:1004C0006F915F914F913F912F911F910F91FF90ED
:1004D000EF90DF90CF90BF90AF909F908F907F90E4
:1004E0006F905F904F903F902F901F900F900FBE96
:1004F0000F9008950F920FB6F8940F921F92112447
:100500002F923F924F925F926F927F928F929F9223
:10051000AF92BF92CF92DF92EF92FF920F931F9311
:100520002F933F934F935F936F937F938F939F93FB
:10053000AF93BF93CF93DF93EF93FF93A0913201DB
:10054000B09133010DB60D920EB60D9213BE0E94FE
:10055000BA0781110E942E09A0913201B091330196
:10056000CD91CDBFDD91DEBFFF91EF91DF91CF91B6
:10057000BF91AF919F918F917F916F915F914F91BB
:100580003F912F911F910F91FF90EF90DF90CF90AF
:10059000BF90AF909F908F907F906F905F904F90A3
:1005A0003F902F901F900F900FBE0F9008950E94C4
:1005B0007A0218950FB6F8940F92FC01928D0F9065
:1005C0000FBE81E0911180E00895FF920F931F9379
:1005D000CF93DF93EC010FB6F8940F92FE8C1F14AB
:1005E0009CF48989811105C00FC08989811104C0DB
:1005F0000BC08E010F5E1F4FC8010E94B20981110E
:100600000E943F0AFA9489F78FEF8E8F0F900FBEEA
:100610000FB6F8940F92FD8C1F149CF488858111FD
:1006200005C00FC08885811104C00BC08E01085F12
:100630001F4FC8010E94B20981110E943F0AFA941B
:1006400089F78FEF8D8F0F900FBEDF91CF911F91A4
:100650000F91FF900895FC01862F972F448D44231E
:10066000A1F026813781240F311D37832683A28193
:10067000B3812A173B0720F02081318137832683FD
:100680006681778150E00E945B0E08950F931F935F
:10069000CF93DF93EC01042F1A8D4C8D41110CC0C8
:1006A00088819981892B09F042C08A819B810E94AF
:1006B000AF0A1B821A8242C0011117C050E08C8120
:1006C0009D810E945B0E2C8D8C819D81820F911DDE
:1006D0009D838C832A813B818217930750F1888107
:1006E00099819D838C8380E029C050E08E819F8119
:1006F0000E945B0E2C8D30E03195219531098E8161
:100700009F81820F931F9F838E83688179818617D3
:10071000970730F48A819B81280F391F3F832E83EE
:10072000023049F4112349F0115080E007C080E005
:1007300005C080E003C080E001C080E01F5F1A8F29
:10074000DF91CF911F910F910895CF93DF93EC012B
:100750000FB6F8940F92888199814B8D50E02C8DC3
:1007600030E0429FF001439FF00D529FF00D1124A5
:10077000E80FF91FFB83EA831A8E9D838C83415017
:100780005109249FF001259FF00D349FF00D112495
:100790008E0F9F1F9F838E838FEF8D8F8E8F6111A2
:1007A0000CC08885882389F0CE0108960E94B20982
:1007B000882359F00E94210208C0CE0108960E94A9
:1007C000CA00CE0141960E94CA000F900FBE81E080
:1007D000DF91CF9108950F931F93CF93DF93082F4D
:1007E000162F6623D9F0869FC00111244F960E94D0
:1007F000AA00EC01009721F40EC0D983C88305C07C
:100800009C01215E3F4F398328830B8F1C8F61E051
:10081000CE010E94A5038C2F9D2F08C08FE190E090
:100820000E94AA00EC01009741F7F5CFDF91CF912C
:100830001F910F9108959F92AF92BF92CF92DF9236
:10084000EF92FF920F931F93CF93DF9300D000D0CE
:100850001F92CDB7DEB78C016B015D834C83A22E56
:10086000B12C992493947C0188E0E80EF11C0FB61A
:10087000F8940F92F801928D838D981718F0F2E09A
:10088000AF1219C04A2DB601C8010E944603F801F3
:100890009189992349F0C80141960E94B2098823A1
:1008A00031F00E94210203C081110E9421020F90A9
:1008B0000FBE81E050C0EC81FD81EF2B21F40F9041
:1008C0000FBE80E048C0B11005C0CE0101960E9465
:1008D000FB09B92C0F900FBE0E94A8070FB6F89421
:1008E0000F92F801858D8F3F09F4158EF801868DE2
:1008F0008F3F09F4168E0F900FBEBE016C5F7F4FC5
:10090000CE0101960E94060A81111FC00FB6F8940D
:100910000F92F801928D838D0F900FBE98130FC028
:100920006C817D81C7010E948609C8010E94E50291
:100930000E94770881119BCF0E94210298CFC801A5
:100940000E94E5020E94770892CFC8010E94E5024A
:100950000E94770880E00F900F900F900F900F90FB
:10096000DF91CF911F910F91FF90EF90DF90CF908B
:10097000BF90AF909F900895FF920F931F93CF93D6
:10098000DF93EC018A019A8D8B8D981710F022303D
:10099000E1F4FE8C422FCE010E9446038FEFF81245
:1009A00010C08989882399F0CE0141960E94B2092E
:1009B000882379F00115110571F081E0F801808339
:1009C0000BC0F394FE8E81E007C080E005C081E09B
:1009D00003C081E001C081E0DF91CF911F910F91B1
:1009E000FF9008958F929F92AF92BF92CF92DF9225
:1009F000EF92FF920F931F93CF93DF9300D000D01D
:100A00001F92CDB7DEB78C016B015D834C83A22EA4
:100A1000912C882483947C0181E1E80EF11C0FB6AF
:100A2000F8940F92F801B28CBB2091F1E680F78028
:100A3000B601C8010E942B03A11019C0BA94F80195
:100A4000B28E80819181892B29F40E94EE0AF801EF
:100A500093838283F80180858823B1F0C8010896CA
:100A60000E94B209882381F00E9421020DC0F80182
:100A7000F782E6828189882339F0C80141960E9475
:100A8000B20981110E9421020F900FBE81E05FC068
:100A90004C815D81452B21F40F900FBE80E057C043
:100AA000911005C0CE0101960E94FB09982C0F9071
:100AB0000FBE0E94A8070FB6F8940F92F801858D1B
:100AC0008F3F09F4158EF801868D8F3F09F4168E3D
:100AD0000F900FBEBE016C5F7F4FCE0101960E944A
:100AE000060A811128C0C8010E94DA028823E9F0B1
:100AF000F80180819181892B49F40FB6F8940F9207
:100B0000828193810E94510A0F900FBE6C817D817A
:100B1000C7010E948609C8010E94E5020E94770869
:100B200081117DCF0E9421027ACFC8010E94E50287
:100B30000E94770874CFC8010E94E5020E947708DE
:100B4000C8010E94DA02882309F469CF80E00F907F
:100B50000F900F900F900F90DF91CF911F910F91F9
:100B6000FF90EF90DF90CF90BF90AF909F908F90CD
:100B70000895CF93DF93EC010FB6F8940F928D8D0B
:100B80008F3F09F41D8E8E8D8F3F09F41E8E0F90BE
:100B90000FBE8A8D811104C0CE0141960E94980932
:100BA000CE010E94E502DF91CF910895E0913001DE
:100BB000F09131018081811107C08FEF9FEF9093F9
:100BC0002401809323010895E0913001F0913101D7
:100BD0000580F681E02D0680F781E02D82819381EA
:100BE00090932401809323010895FF920F931F9304
:100BF000CF93DF93EC01F62E00912A0110912B0187
:100C0000809132019091330102960E942E01CF3FD4
:100C10008FEFD80769F4FF2059F06091320170918D
:100C200033016E5F7F4F8DE791E00E94DC002FC0A3
:100C3000C00FD11FE0913201F0913301D383C28301
:100C4000C017D10768F4609132017091330180912F
:100C50002E0190912F016E5F7F4F0E94FD0017C003
:100C60006091320170913301809130019091310196
:100C70006E5F7F4F0E94FD008091230190912401BF
:100C8000C817D90720F4D0932401C0932301DF9122
:100C9000CF911F910F91FF900895CF93DF93EC01B7
:100CA0008F89988D0E94BB00CE010E94BB00DF910E
:100CB000CF9108955F926F927F928F929F92AF92A1
:100CC000BF92CF92DF92EF92FF920F931F93CF9339
:100CD000DF934C015B016A013901502ECA010E9469
:100CE000AA008C01009709F4F4C088E290E00E9409
:100CF000AA00EC010097B1F0188F0F8BA60165EAEE
:100D000070E0C8010E94640E81E0C81AD1088F8982
:100D1000988DC80ED91ED5018C91898F8C91811127
:100D200005C016C0C8010E94BB00D3C0AE01465E1C
:100D30005F4FF501319621E0CF013191DA013D930A
:100D4000AD01DC018C91882319F02F5F2830A1F7C9
:100D500018A2B3E0B51520F40F2EF3E05F2EF02DAE
:100D60005E8A59A21AA28E010E5F1F4FC8010E940F
:100D7000D800CE010C960E94D800D987C88784E09D
:100D800090E0851991099D878C87DB8BCA8B1BA20C
:100D90001CA21DA21EA21FA2A301B401C6010E9493
:100DA000540199838883E114F10419F0F701D18388
:100DB000C0830FB6F8940F9280912C018F5F8093BF
:100DC0002C018091320190913301892B09F040C0B0
:100DD000D0933301C093320180912C01813009F00E
:100DE00047C0E12CF12CC701880F991F880F991F6C
:100DF000880F991F8E0D9F1D8B5C9E4F0E94CA000D
:100E0000FFEFEF1AFF0A84E0E816F10461F789E5C5
:100E100091E00E94CA0082E691E00E94CA008BE63F
:100E200091E00E94CA0084E791E00E94CA008DE729
:100E300091E00E94CA0089E591E09093310180938E
:100E4000300182E691E090932F0180932E0110C033
:100E50008091280181110CC0E0913201F0913301A1
:100E600096898E89891720F0D0933301C09332017F
:100E7000809134018F5F809334018E899091290194
:100E8000981710F48093290190E09C01220F331FE2
:100E9000220F331F220F331F820F931FB8018B5C69
:100EA0009E4F0E94DC000F900FBE80912801882386
:100EB00061F0E0913201F091330196898E899817A3
:100EC00030F40E94210281E005C081E003C081E08E
:100ED00001C08FEFDF91CF911F910F91FF90EF90A5
:100EE000DF90CF90BF90AF909F908F907F906F904A
:100EF0005F900895EF92FF920F930F2EF6E8EF2E7A
:100F0000F1E0FF2EF02D00E020E030E040EC50E07A
:100F100064E171E085EF98E00E945A068130A1F407
:100F20000E945A0B813081F4F8948FEF9FEF9093D9
:100F300024018093230181E08093280110922B01EA
:100F400010922A010E94E8010F91FF90EF900895FE
:100F5000809122018F5F8093220108950FB6F8944B
:100F60000F9220912A0130912B010F900FBE822FFA
:100F7000932F0895CF92DF92EF92FF920F931F93DA
:100F8000CF93DF9380912201811198C0E0902A01D4
:100F9000F0902B018FEFE81AF80AF0922B01E09203
:100FA0002A01E114F104B9F48091300190913101EA
:100FB00020912E0130912F01309331012093300187
:100FC00090932F0180932E01809125018F5F809354
:100FD00025010E94D6058091230190912401E816F5
:100FE000F90620F4D12C54C0DC2C03C0D12CCC2425
:100FF000C394E0913001F09131018081811107C0EB
:101000008FEF9FEF909324018093230141C0E091E3
:101010003001F09131010580F681E02DC681D78144
:101020002A813B81E216F30628F4309324012093B1
:1010300023012EC08E010E5F1F4FC8010E942E019A
:101040008C899D89892B21F0CE010C960E942E015E
:101050002E8980912901821710F42093290130E014
:10106000C901880F991F880F991F880F991F820F38
:10107000931FB8018B5C9E4F0E94DC00E09132010F
:10108000F09133019E898689981708F0ADCFB1CFD2
:10109000E0913201F0913301868990E0FC01EE0F7E
:1010A000FF1FEE0FFF1FEE0FFF1F8E0F9F1FFC0194
:1010B000EB5CFE4F8081823040F409C080912701B3
:1010C0008F5F80932701D12C02C0DD24D3948091BF
:1010D0002601882311F0DD24D3948D2DDF91CF914B
:1010E0001F910F91FF90EF90DF90CF900895DF92C6
:1010F000EF92FF920F931F93CF93DF930FB6F89465
:101100000F928091220181508093220180912201CF
:1011100081115EC080912C01811132C05CC0E091D0
:101120007001F0917101C681D781CE010C960E94A9
:101130002E018E010E5F1F4FC8010E942E018E8965
:1011400090912901981710F48093290190E09C0157
:10115000220F331F220F331F220F331F820F931FC3
:10116000B8018B5C9E4F0E94DC00E0913201F0914F
:1011700033019E898689981768F0D09226010AC0AB
:10118000C0E0D0E00F2EFBE6EF2EF1E0FF2EF02DB9
:10119000DD24D394F70180818111C1CFCD2B11F0D3
:1011A0000E94D605C0912701CC2351F0D1E00E94C6
:1011B000BA078111D0932601C150C9F710922701B7
:1011C00080912601882331F00E94210281E003C032
:1011D00080E001C080E00F900FBEDF91CF911F91A2
:1011E0000F91FF90EF90DF900895C4E7D1E00F2EAC
:1011F000F5E3EF2EF1E0FF2EF02D23C00E94A807AB
:1012000018810E9477081123E1F00FB6F8940F922D
:10121000E0917901F0917A0106811781C801029667
:101220000E942E0180912C01815080932C0180918D
:101230002D01815080932D010F900FBEC8010E9497
:101240004D0680912D018111D9CFF7018081823027
:1012500010F00E9421020E947A07F3CF80912201B0
:10126000882321F081E080932601089510922601C1
:1012700020912901822F90E0FC01EE0FFF1FEE0F5D
:10128000FF1FEE0FFF1FE80FF91FEB5CFE4F3081D1
:10129000311111C02150822F90E0FC01EE0FFF1F91
:1012A000EE0FFF1FEE0FFF1FE80FF91FEB5CFE4F65
:1012B0003081332379F3FC01EE0FFF1FEE0FFF1F88
:1012C000EE0FFF1F8E0F9F1FFC01EB5CFE4FA181F5
:1012D000B28112960D90BC91A02DB283A183CF0153
:1012E0000396A817B90731F412968D919C91139724
:1012F000928381830180F281E02D86819781909392
:10130000330180933201209329010895CF93DF9315
:10131000EB016091320170913301645F7F4F0E9455
:10132000FD0061E0CE010E94F505DF91CF910895A7
:101330001F93CF93DF93EB01142F20913201309153
:101340003301B901645F7F4F0E94DC00112311F06B
:10135000CFEFDFEF612FCE010E94F505DF91CF9136
:101360001F9108950F931F93CF93DF93DC01159680
:10137000ED91FC911697C681D7818E01045F1F4FB6
:10138000C8010E942E018091220181111DC08E0191
:101390000E5F1F4FC8010E942E018E899091290176
:1013A000981710F48093290190E09C01220F331FBD
:1013B000220F331F220F331F820F931FB8018B5C44
:1013C0009E4F0E94DC0005C0B8018BE691E00E94B0
:1013D000DC00E0913201F09133019E898689891702
:1013E00020F481E08093260101C080E0DF91CF915D
:1013F0001F910F91089520912501FC0120832091D8
:101400002A0130912B013283218308950FB6F8947D
:101410000F9240912A0150912B01DB012D913C91BB
:101420002F3FBFEF3B0719F1E0912501DC01FC9153
:10143000FE1739F01196ED91FC9112974E175F0748
:10144000C0F4DC011196ED91FC911297DA01AE1B0C
:10145000BF0BA217B30778F4E41BF50B2E0F3F1F49
:10146000FB01318320830E94FB0980E005C080E0FE
:1014700003C081E001C081E00F900FBE089581E0BC
:1014800080932601089580912801882331F080916E
:101490002201811104C082E0089581E0089580E076
:1014A00008950F931F93CF93DF93EC01009709F4F6
:1014B00051C08E89E0913201F091330196898917EC
:1014C00008F048C02C853D8533235CF0E091320163
:1014D000F0913301968924E030E0291B31093D87E2
:1014E0002C8790E09C01220F331F220F331F220F05
:1014F000331F820F931F8B5C9E4F2A853B852817D5
:10150000390711F58E010E5F1F4FC8010E942E0191
:10151000E0913201F091330186898E8B90912901FF
:10152000981710F48093290190E09C01220F331F3B
:10153000220F331F220F331F820F931FB8018B5CC2
:101540009E4F0E94DC0006C0E0913201F091330111
:1015500086898E8BDF91CF911F910F9108950F9304
:101560001F93CF93DF93EC01009771F18AA1815013
:101570008AA32E8999A1291749F1811129C08E01C9
:101580000E5F1F4FC8010E942E0189A18E8B24E09F
:1015900030E0281B31093D872C879091290198174D
:1015A00010F48093290190E09C01220F331F220F39
:1015B000331F220F331F820F931FB8018B5C9E4F86
:1015C0000E94DC0081E005C080E003C080E001C033
:1015D00080E0DF91CF911F910F91089580913201AA
:1015E00090913301892B39F0E0913201F091330170
:1015F00082A18F5F82A32091320130913301822F2B
:10160000932F08950FB6F8940F92809188019091CE
:101610008901892BE9F482E991E00E94CA008BE9F3
:1016200091E00E94CA0082E991E090938D0180933D
:101630008C018BE991E090938F0180938E0140E0C3
:1016400065E08AE00E94EB03909389018093880112
:101650000F900FBE0895FC0173836283918780878A
:101660004617570790F0421B530B84859585481702
:101670005907E0F4BF016E5F7F4F80918E0190911A
:101680008F010E94FD0080E008954217530718F46F
:101690006217730768F4BF016E5F7F4F80918C0102
:1016A00090918D010E94FD0080E0089581E00895F1
:1016B00081E00895EF92FF920F930E94020B8091B8
:1016C000880190918901892B91F00F2EFAE8EF2E75
:1016D000F1E0FF2EF02D03E020E030E045E550E0A2
:1016E00069E171E085E39CE00E945A0601C080E058
:1016F0000F91FF90EF9008950F931F93CF93DF9377
:1017000000D000D01F92CDB7DEB7D901E09188019B
:10171000F0918901309769F169835B834A839D83E6
:101720008C836630ECF40E94430A823061F420E03E
:10173000A801BE016F5F7F4F809188019091890160
:101740000E941B0417C020E040E050E0BE016F5F24
:101750007F4F80918801909189010E941B040AC0EB
:1017600020E0AD01BE016F5F7F4FCF010E94BC043E
:1017700001C080E00F900F900F900F900F90DF91BD
:10178000CF911F910F910895AF92BF92CF92DF92A8
:10179000EF92FF920F931F93CF93DF936C010E9400
:1017A000AE077C018091900190919101E816F906B5
:1017B00008F048C030C00580F681E02DA080B180DF
:1017C000C681D7818E010E5F1F4FC8010E942E0176
:1017D000E989FA89CE0109958E858130E1F48C85FD
:1017E0009D858A0D9B1DA816B90660F49B838A838C
:1017F000D987C887B80180918C0190918D010E9492
:10180000FD0009C000E010E020E030E0A50160E04C
:10181000CE010E947C0BE0918C01F0918D018081C2
:101820008111C9CF80918E0190918F0190938D018C
:1018300080938C01F0938F01E0938E0181E0F6019B
:10184000808302C0F6011082F0929101E092900133
:101850008E2D9F2DDF91CF911F910F91FF90EF90D3
:10186000DF90CF90BF90AF900895CF93DF9300D0DB
:1018700000D000D0CDB7DEB7AA24A394E12CF12C80
:10188000B12CE0918C01F0918D018081882309F4C5
:10189000CEC00580F681E02DC080D1800E94A807CF
:1018A000CE0106960E94C40B8C018E8181114FC01F
:1018B0000C151D05D8F10E947708E0918C01F0917C
:1018C0008D010580F681E02D86809780C401029607
:1018D0000E942E01D4011E968C911E978130A1F496
:1018E0001C966D917C911D976C0D7D1D9601A80134
:1018F000C4010E942B0B882339F087019701A601B0
:101900006B2DC4010E947C0BD4015196ED91FC918A
:101910005297C40109957DC0E0918E01F0918F012D
:101920004A2D808181114B2D670101C04B2DB601DD
:10193000601B710B80918801909189010E94B9050B
:101940000E947708811165C00E94210262C00E9436
:1019500077085FC0898188230CF45BC0CC80DD8070
:10196000F60182859385892B21F0C60102960E949B
:101970002E01CE0106960E94C40B2981253009F460
:1019800045C04CF422230CF444C023304CF02430E6
:1019900009F03FC02CC028301CF02930D1F527C0F9
:1019A0002A813B81D6011C966D917C911D97620F17
:1019B000731FAC01C6010E942B0B882351F1D60185
:1019C0005196ED91FC915297C6010995F6018685D5
:1019D0008130F9F4448555858A819B81480F591FD0
:1019E000870197016B2DC6010E947C0B12C06A8192
:1019F0007B81D6011D967C936E931C97680F791F8F
:101A00009C01AC01C6010E942B0B03C0C6010E94C1
:101A1000BB002B2DA701BE016F5F7F4F8091880116
:101A2000909189010E94F204811194CF2ACF0E94E3
:101A3000A807CE0106960E94C40B8C018E818823D4
:101A400009F46ACF84CF0F931F93CF93DF93823033
:101A5000910510F482E090E0E091A601F091A701D9
:101A600020E030E0C0E0D0E023C040815181481741
:101A70005907A8F04817590761F48281938120978C
:101A800019F09B838A832EC09093A7018093A601AF
:101A900029C02115310529F04217530710F0A9017B
:101AA00002C0BE01DF0102811381EF019A01F8013A
:101AB0003097D9F62115310509F1281B390B24304F
:101AC000310590F412968D919C91139761157105D3
:101AD00021F0FB019383828304C09093A70180933C
:101AE000A601FD01329644C0FD01E20FF31F819370
:101AF0009193225031092D933C933AC02091A40137
:101B00003091A501232B41F4209102013091030172
:101B10003093A5012093A40120910001309101018F
:101B20002115310541F42DB73EB740910401509184
:101B30000501241B350BE091A401F091A501E217EA
:101B4000F307A0F42E1B3F0B2817390778F0AC01E0
:101B50004E5F5F4F2417350748F04E0F5F1F5093BD
:101B6000A5014093A4018193919302C0E0E0F0E0CD
:101B7000CF01DF91CF911F910F910895EF92FF92C6
:101B80000F931F93CF93DF93009709F48FC0DC016D
:101B9000129713961C921E921297E090A601F09055
:101BA000A701E114F10489F42D913C911197280FBC
:101BB000391F8091A4019091A5018217930789F59F
:101BC000B093A501A093A40171C0E70120E030E02B
:101BD00001C0EA01CA17DB0738F44A815B819E0124
:101BE00041155105B1F722C0BC0162507109FB01DA
:101BF000D383C28300811181AC01400F511F4C1768
:101C00005D0761F448815981400F511F4E5F5F4F5E
:101C1000518340834A815B8153834283211531057F
:101C200029F4B093A701A093A60140C0F901B383A2
:101C3000A283E90169917991C60FD71FAC17BD073F
:101C400079F4DC015E914E91460F571F4E5F5F4F56
:101C50005183408312968D919C9113979383828335
:101C6000A0E0B0E002C0D7017C01F701828193813E
:101C70000097C9F7C701029620813181820F931F17
:101C80002091A4013091A5012817390779F4109704
:101C900029F41092A7011092A60104C013961C9279
:101CA0001E921297F092A501E092A401CDB7DEB783
:101CB000E6E00C94770EFB01DC0102C001900D926E
:101CC00041505040D8F70895DC0101C06D93415058
:101CD0005040E0F708952A88398848885F846E84E8
:101CE0007D848C849B84AA84B984C884DF80EE8040
:101CF000FD800C811B81AA81B981CE0FD11D0FB649
:101D0000F894DEBF0FBECDBFED010895F894FFCF6C
:101D10000000A80120005461736B5F3100546173AF
:101D20006B5F320049444C4500546D72205376631A
:021D30000000B1
:00000001FF
